{
  "_format": "hh-sol-artifact-1",
  "contractName": "MeshMobileRegistration",
  "sourceName": "contracts/Registration.sol",
  "abi": [
    {
      "inputs": [],
      "stateMutability": "nonpayable",
      "type": "constructor"
    },
    {
      "anonymous": false,
      "inputs": [
        {
          "indexed": false,
          "internalType": "address",
          "name": "registrant",
          "type": "address"
        },
        {
          "indexed": false,
          "internalType": "bytes32",
          "name": "identifier",
          "type": "bytes32"
        }
      ],
      "name": "LogDeviceRegistered",
      "type": "event"
    },
    {
      "anonymous": false,
      "inputs": [
        {
          "indexed": false,
          "internalType": "bytes32",
          "name": "param",
          "type": "bytes32"
        },
        {
          "indexed": false,
          "internalType": "uint256",
          "name": "newValue",
          "type": "uint256"
        }
      ],
      "name": "LogParameterValueChanged",
      "type": "event"
    },
    {
      "anonymous": false,
      "inputs": [
        {
          "indexed": false,
          "internalType": "address",
          "name": "registrant",
          "type": "address"
        },
        {
          "indexed": false,
          "internalType": "bytes32",
          "name": "identifier",
          "type": "bytes32"
        },
        {
          "indexed": false,
          "internalType": "bytes32",
          "name": "endpoint",
          "type": "bytes32"
        },
        {
          "indexed": false,
          "internalType": "bytes8",
          "name": "mcc_mnc",
          "type": "bytes8"
        }
      ],
      "name": "LogProviderRegistered",
      "type": "event"
    },
    {
      "anonymous": false,
      "inputs": [
        {
          "indexed": true,
          "internalType": "address",
          "name": "previousOwner",
          "type": "address"
        },
        {
          "indexed": true,
          "internalType": "address",
          "name": "newOwner",
          "type": "address"
        }
      ],
      "name": "OwnershipTransferred",
      "type": "event"
    },
    {
      "inputs": [
        {
          "internalType": "uint256",
          "name": "",
          "type": "uint256"
        }
      ],
      "name": "allDevices",
      "outputs": [
        {
          "internalType": "address",
          "name": "",
          "type": "address"
        }
      ],
      "stateMutability": "view",
      "type": "function"
    },
    {
      "inputs": [],
      "name": "allDevicesLength",
      "outputs": [
        {
          "internalType": "uint256",
          "name": "",
          "type": "uint256"
        }
      ],
      "stateMutability": "view",
      "type": "function"
    },
    {
      "inputs": [
        {
          "internalType": "uint256",
          "name": "",
          "type": "uint256"
        }
      ],
      "name": "allProviders",
      "outputs": [
        {
          "internalType": "address",
          "name": "",
          "type": "address"
        }
      ],
      "stateMutability": "view",
      "type": "function"
    },
    {
      "inputs": [],
      "name": "allProvidersLength",
      "outputs": [
        {
          "internalType": "uint256",
          "name": "",
          "type": "uint256"
        }
      ],
      "stateMutability": "view",
      "type": "function"
    },
    {
      "inputs": [],
      "name": "canRegister",
      "outputs": [
        {
          "internalType": "bool",
          "name": "",
          "type": "bool"
        }
      ],
      "stateMutability": "view",
      "type": "function"
    },
    {
      "inputs": [],
      "name": "canWithdraw",
      "outputs": [
        {
          "internalType": "bool",
          "name": "",
          "type": "bool"
        }
      ],
      "stateMutability": "view",
      "type": "function"
    },
    {
      "inputs": [],
      "name": "claimRewards",
      "outputs": [],
      "stateMutability": "nonpayable",
      "type": "function"
    },
    {
      "inputs": [
        {
          "internalType": "address",
          "name": "idp",
          "type": "address"
        }
      ],
      "name": "deposit",
      "outputs": [],
      "stateMutability": "payable",
      "type": "function"
    },
    {
      "inputs": [],
      "name": "deviceStake",
      "outputs": [
        {
          "internalType": "uint256",
          "name": "",
          "type": "uint256"
        }
      ],
      "stateMutability": "view",
      "type": "function"
    },
    {
      "inputs": [
        {
          "internalType": "bytes8",
          "name": "",
          "type": "bytes8"
        }
      ],
      "name": "mncToAddress",
      "outputs": [
        {
          "internalType": "address",
          "name": "",
          "type": "address"
        }
      ],
      "stateMutability": "view",
      "type": "function"
    },
    {
      "inputs": [],
      "name": "owner",
      "outputs": [
        {
          "internalType": "address",
          "name": "",
          "type": "address"
        }
      ],
      "stateMutability": "view",
      "type": "function"
    },
    {
      "inputs": [],
      "name": "providerStake",
      "outputs": [
        {
          "internalType": "uint256",
          "name": "",
          "type": "uint256"
        }
      ],
      "stateMutability": "view",
      "type": "function"
    },
    {
      "inputs": [
        {
          "internalType": "address",
          "name": "ownerAddress",
          "type": "address"
        },
        {
          "internalType": "bytes32",
          "name": "identifier",
          "type": "bytes32"
        },
        {
          "internalType": "enum DeviceTypes",
          "name": "deviceType",
          "type": "uint8"
        }
      ],
      "name": "registerDevice",
      "outputs": [],
      "stateMutability": "payable",
      "type": "function"
    },
    {
      "inputs": [
        {
          "internalType": "address",
          "name": "ownerAddress",
          "type": "address"
        },
        {
          "internalType": "bytes32",
          "name": "identifier",
          "type": "bytes32"
        },
        {
          "internalType": "bytes32",
          "name": "endpoint",
          "type": "bytes32"
        },
        {
          "internalType": "bytes8",
          "name": "mcc_mnc",
          "type": "bytes8"
        }
      ],
      "name": "registerProvider",
      "outputs": [],
      "stateMutability": "payable",
      "type": "function"
    },
    {
      "inputs": [
        {
          "internalType": "address",
          "name": "",
          "type": "address"
        }
      ],
      "name": "registeredDevices",
      "outputs": [
        {
          "internalType": "bytes32",
          "name": "identifier",
          "type": "bytes32"
        },
        {
          "internalType": "enum DeviceTypes",
          "name": "deviceType",
          "type": "uint8"
        },
        {
          "internalType": "uint8",
          "name": "deviceHealth",
          "type": "uint8"
        },
        {
          "internalType": "uint256",
          "name": "rewards",
          "type": "uint256"
        },
        {
          "internalType": "uint256",
          "name": "staked",
          "type": "uint256"
        }
      ],
      "stateMutability": "view",
      "type": "function"
    },
    {
      "inputs": [
        {
          "internalType": "address",
          "name": "",
          "type": "address"
        }
      ],
      "name": "registeredProviders",
      "outputs": [
        {
          "internalType": "bytes32",
          "name": "identifier",
          "type": "bytes32"
        },
        {
          "internalType": "bytes32",
          "name": "endpoint",
          "type": "bytes32"
        },
        {
          "internalType": "bytes8",
          "name": "mcc_mnc",
          "type": "bytes8"
        },
        {
          "internalType": "enum ProviderTypes",
          "name": "providerType",
          "type": "uint8"
        },
        {
          "internalType": "uint256",
          "name": "deposit",
          "type": "uint256"
        },
        {
          "internalType": "uint256",
          "name": "staked",
          "type": "uint256"
        }
      ],
      "stateMutability": "view",
      "type": "function"
    },
    {
      "inputs": [
        {
          "internalType": "address",
          "name": "device",
          "type": "address"
        }
      ],
      "name": "removeDevice",
      "outputs": [],
      "stateMutability": "nonpayable",
      "type": "function"
    },
    {
      "inputs": [
        {
          "internalType": "address",
          "name": "provider",
          "type": "address"
        }
      ],
      "name": "removeProvider",
      "outputs": [],
      "stateMutability": "nonpayable",
      "type": "function"
    },
    {
      "inputs": [],
      "name": "renounceOwnership",
      "outputs": [],
      "stateMutability": "nonpayable",
      "type": "function"
    },
    {
      "inputs": [
        {
          "internalType": "uint256",
          "name": "newStake",
          "type": "uint256"
        }
      ],
      "name": "setDeviceStake",
      "outputs": [],
      "stateMutability": "nonpayable",
      "type": "function"
    },
    {
      "inputs": [
        {
          "internalType": "uint256",
          "name": "newStake",
          "type": "uint256"
        }
      ],
      "name": "setProviderStake",
      "outputs": [],
      "stateMutability": "nonpayable",
      "type": "function"
    },
    {
      "inputs": [
        {
          "internalType": "address",
          "name": "_validation",
          "type": "address"
        }
      ],
      "name": "setValidation",
      "outputs": [],
      "stateMutability": "nonpayable",
      "type": "function"
    },
    {
      "inputs": [],
      "name": "toggleRegistrations",
      "outputs": [],
      "stateMutability": "nonpayable",
      "type": "function"
    },
    {
      "inputs": [],
      "name": "toggleWithdraws",
      "outputs": [],
      "stateMutability": "nonpayable",
      "type": "function"
    },
    {
      "inputs": [
        {
          "internalType": "address",
          "name": "debitor",
          "type": "address"
        },
        {
          "internalType": "address",
          "name": "creditor",
          "type": "address"
        },
        {
          "internalType": "uint256",
          "name": "amount",
          "type": "uint256"
        }
      ],
      "name": "transfer",
      "outputs": [],
      "stateMutability": "nonpayable",
      "type": "function"
    },
    {
      "inputs": [
        {
          "internalType": "address",
          "name": "newOwner",
          "type": "address"
        }
      ],
      "name": "transferOwnership",
      "outputs": [],
      "stateMutability": "nonpayable",
      "type": "function"
    },
    {
      "inputs": [],
      "name": "validations",
      "outputs": [
        {
          "internalType": "address",
          "name": "",
          "type": "address"
        }
      ],
      "stateMutability": "view",
      "type": "function"
    },
    {
      "inputs": [],
      "name": "withdrawDevice",
      "outputs": [],
      "stateMutability": "nonpayable",
      "type": "function"
    },
    {
      "inputs": [],
      "name": "withdrawFees",
      "outputs": [],
      "stateMutability": "nonpayable",
      "type": "function"
    },
    {
      "inputs": [],
      "name": "withdrawProvider",
      "outputs": [],
      "stateMutability": "nonpayable",
      "type": "function"
    },
    {
      "stateMutability": "payable",
      "type": "receive"
    }
  ],
  "bytecode": "0x60806040526001600860006101000a81548160ff0219169083151502179055506001600860016101000a81548160ff02191690831515021790555034801561004657600080fd5b5061006361005861006860201b60201c565b61007060201b60201c565b610134565b600033905090565b60008060009054906101000a900473ffffffffffffffffffffffffffffffffffffffff169050816000806101000a81548173ffffffffffffffffffffffffffffffffffffffff021916908373ffffffffffffffffffffffffffffffffffffffff1602179055508173ffffffffffffffffffffffffffffffffffffffff168173ffffffffffffffffffffffffffffffffffffffff167f8be0079c531659141344cd1fd0a4f28419497f9722a3daafe3b4186f6b6457e060405160405180910390a35050565b61233d80620001446000396000f3fe6080604052600436106101d15760003560e01c80638da5cb5b116100f7578063d02721cb11610095578063eecf31ad11610064578063eecf31ad146105e5578063f2fde38b14610601578063f32083e81461062a578063f340fa0114610667576101d8565b8063d02721cb14610524578063de17f7201461053b578063e7747ccb14610566578063e84db8b8146105a8576101d8565b8063b51459fe116100d1578063b51459fe14610478578063b8f8bbdf146104a3578063beabacc8146104e4578063c746b83d1461050d576101d8565b80638da5cb5b146103f95780639607072014610424578063a264c7cf1461044f576101d8565b8063589384b91161016f5780637069782b1161013e5780637069782b14610363578063715018a61461038e5780637bc205a6146103a55780638a355a57146103d0576101d8565b8063589384b9146102bb5780635ce13120146102e65780635d5c2422146103235780635e4dbef51461034c576101d8565b8063324f2dce116101ab578063324f2dce14610246578063372500ab146102715780633aa151b614610288578063476343ee146102a4576101d8565b806307dd1d50146101dd5780631f7b63241461020657806331fa3d7d1461022f576101d8565b366101d857005b600080fd5b3480156101e957600080fd5b5061020460048036038101906101ff91906116b7565b610683565b005b34801561021257600080fd5b5061022d60048036038101906102289190611742565b6106ce565b005b34801561023b57600080fd5b506102446106d9565b005b34801561025257600080fd5b5061025b61070d565b604051610268919061177e565b60405180910390f35b34801561027d57600080fd5b50610286610713565b005b6102a2600480360381019061029d9190611827565b61084e565b005b3480156102b057600080fd5b506102b9610b2c565b005b3480156102c757600080fd5b506102d0610b36565b6040516102dd91906118a9565b60405180910390f35b3480156102f257600080fd5b5061030d600480360381019061030891906116b7565b610b49565b60405161031a91906118d3565b60405180910390f35b34801561032f57600080fd5b5061034a600480360381019061034591906116b7565b610b88565b005b34801561035857600080fd5b50610361610bd3565b005b34801561036f57600080fd5b50610378610c07565b604051610385919061177e565b60405180910390f35b34801561039a57600080fd5b506103a3610c0d565b005b3480156103b157600080fd5b506103ba610c21565b6040516103c7919061177e565b60405180910390f35b3480156103dc57600080fd5b506103f760048036038101906103f29190611742565b610c2e565b005b34801561040557600080fd5b5061040e610c39565b60405161041b91906118d3565b60405180910390f35b34801561043057600080fd5b50610439610c62565b604051610446919061177e565b60405180910390f35b34801561045b57600080fd5b5061047660048036038101906104719190611742565b610c6f565b005b34801561048457600080fd5b5061048d610cbb565b60405161049a91906118a9565b60405180910390f35b3480156104af57600080fd5b506104ca60048036038101906104c59190611742565b610cce565b6040516104db959493929190611990565b60405180910390f35b3480156104f057600080fd5b5061050b600480360381019061050691906119e3565b610d1e565b005b34801561051957600080fd5b50610522610ef7565b005b34801561053057600080fd5b50610539610f81565b005b34801561054757600080fd5b5061055061100b565b60405161055d91906118d3565b60405180910390f35b34801561057257600080fd5b5061058d60048036038101906105889190611742565b611031565b60405161059f96959493929190611a8d565b60405180910390f35b3480156105b457600080fd5b506105cf60048036038101906105ca91906116b7565b611087565b6040516105dc91906118d3565b60405180910390f35b6105ff60048036038101906105fa9190611b13565b6110c6565b005b34801561060d57600080fd5b5061062860048036038101906106239190611742565b6112e8565b005b34801561063657600080fd5b50610651600480360381019061064c9190611b66565b61136c565b60405161065e91906118d3565b60405180910390f35b610681600480360381019061067c9190611742565b61139f565b005b61068b61143e565b806006819055507f5387552741fc4ed0c866c8c7dc4689686fe6ed01065961919026fa8296a14e526006546040516106c39190611bb9565b60405180910390a150565b6106d661143e565b50565b6106e161143e565b600860019054906101000a900460ff1615600860016101000a81548160ff021916908315150217905550565b60075481565b6000801b600160003373ffffffffffffffffffffffffffffffffffffffff1673ffffffffffffffffffffffffffffffffffffffff16815260200190815260200160002060000154141561079b576040517f08c379a000000000000000000000000000000000000000000000000000000000815260040161079290611c3d565b60405180910390fd5b600860019054906101000a900460ff166107ea576040517f08c379a00000000000000000000000000000000000000000000000000000000081526004016107e190611ca9565b60405180910390fd5b6000600160003373ffffffffffffffffffffffffffffffffffffffff1673ffffffffffffffffffffffffffffffffffffffff16815260200190815260200160002090506000816002015490506000826002018190555061084a33826114bc565b5050565b600860009054906101000a900460ff1661089d576040517f08c379a000000000000000000000000000000000000000000000000000000000815260040161089490611d15565b60405180910390fd5b60075434146108e1576040517f08c379a00000000000000000000000000000000000000000000000000000000081526004016108d890611d81565b60405180910390fd5b6040518060c001604052808481526020018381526020018277ffffffffffffffffffffffffffffffffffffffffffffffff1916815260200160008081111561092c5761092b6118fd565b5b81526020016000815260200134815250600260008673ffffffffffffffffffffffffffffffffffffffff1673ffffffffffffffffffffffffffffffffffffffff168152602001908152602001600020600082015181600001556020820151816001015560408201518160020160006101000a81548167ffffffffffffffff021916908360c01c021790555060608201518160020160086101000a81548160ff021916908360008111156109e2576109e16118fd565b5b02179055506080820151816003015560a0820151816004015590505083600560008377ffffffffffffffffffffffffffffffffffffffffffffffff191677ffffffffffffffffffffffffffffffffffffffffffffffff1916815260200190815260200160002060006101000a81548173ffffffffffffffffffffffffffffffffffffffff021916908373ffffffffffffffffffffffffffffffffffffffff1602179055506004849080600181540180825580915050600190039060005260206000200160009091909190916101000a81548173ffffffffffffffffffffffffffffffffffffffff021916908373ffffffffffffffffffffffffffffffffffffffff1602179055507fb2aac97eb8fe1fcc64781c41b20c22d7546c6f8b63ed9dcbddca8fd84a1c7b1884848484604051610b1e9493929190611da1565b60405180910390a150505050565b610b3461143e565b565b600860009054906101000a900460ff1681565b60048181548110610b5957600080fd5b906000526020600020016000915054906101000a900473ffffffffffffffffffffffffffffffffffffffff1681565b610b9061143e565b806007819055507f5387552741fc4ed0c866c8c7dc4689686fe6ed01065961919026fa8296a14e52600754604051610bc89190611e0c565b60405180910390a150565b610bdb61143e565b600860009054906101000a900460ff1615600860006101000a81548160ff021916908315150217905550565b60065481565b610c1561143e565b610c1f60006115b0565b565b6000600480549050905090565b610c3661143e565b50565b60008060009054906101000a900473ffffffffffffffffffffffffffffffffffffffff16905090565b6000600380549050905090565b610c7761143e565b80600860026101000a81548173ffffffffffffffffffffffffffffffffffffffff021916908373ffffffffffffffffffffffffffffffffffffffff16021790555050565b600860019054906101000a900460ff1681565b60016020528060005260406000206000915090508060000154908060010160009054906101000a900460ff16908060010160019054906101000a900460ff16908060020154908060030154905085565b600073ffffffffffffffffffffffffffffffffffffffff16600860029054906101000a900473ffffffffffffffffffffffffffffffffffffffff1673ffffffffffffffffffffffffffffffffffffffff161415610db0576040517f08c379a0000000000000000000000000000000000000000000000000000000008152600401610da790611e7f565b60405180910390fd5b600860029054906101000a900473ffffffffffffffffffffffffffffffffffffffff1673ffffffffffffffffffffffffffffffffffffffff163373ffffffffffffffffffffffffffffffffffffffff1614610e40576040517f08c379a0000000000000000000000000000000000000000000000000000000008152600401610e3790611eeb565b60405180910390fd5b80600260008573ffffffffffffffffffffffffffffffffffffffff1673ffffffffffffffffffffffffffffffffffffffff1681526020019081526020016000206003016000828254610e929190611f3a565b9250508190555080600160008473ffffffffffffffffffffffffffffffffffffffff1673ffffffffffffffffffffffffffffffffffffffff1681526020019081526020016000206002016000828254610eeb9190611f6e565b92505081905550505050565b6000801b600160003373ffffffffffffffffffffffffffffffffffffffff1673ffffffffffffffffffffffffffffffffffffffff168152602001908152602001600020600001541415610f7f576040517f08c379a0000000000000000000000000000000000000000000000000000000008152600401610f7690611c3d565b60405180910390fd5b565b6000801b600260003373ffffffffffffffffffffffffffffffffffffffff1673ffffffffffffffffffffffffffffffffffffffff168152602001908152602001600020600001541415611009576040517f08c379a000000000000000000000000000000000000000000000000000000000815260040161100090612010565b60405180910390fd5b565b600860029054906101000a900473ffffffffffffffffffffffffffffffffffffffff1681565b60026020528060005260406000206000915090508060000154908060010154908060020160009054906101000a900460c01b908060020160089054906101000a900460ff16908060030154908060040154905086565b6003818154811061109757600080fd5b906000526020600020016000915054906101000a900473ffffffffffffffffffffffffffffffffffffffff1681565b600860009054906101000a900460ff16611115576040517f08c379a000000000000000000000000000000000000000000000000000000000815260040161110c90611d15565b60405180910390fd5b6006543414611159576040517f08c379a000000000000000000000000000000000000000000000000000000000815260040161115090611d81565b60405180910390fd5b6040518060a0016040528083815260200182600181111561117d5761117c6118fd565b5b815260200160ff801681526020016000815260200134815250600160008573ffffffffffffffffffffffffffffffffffffffff1673ffffffffffffffffffffffffffffffffffffffff1681526020019081526020016000206000820151816000015560208201518160010160006101000a81548160ff0219169083600181111561120a576112096118fd565b5b021790555060408201518160010160016101000a81548160ff021916908360ff16021790555060608201518160020155608082015181600301559050506003839080600181540180825580915050600190039060005260206000200160009091909190916101000a81548173ffffffffffffffffffffffffffffffffffffffff021916908373ffffffffffffffffffffffffffffffffffffffff1602179055507f7239cf40421b4e48ac50cdb0088dbc4db82e64cc112fdcd3a2a5367f03811b2b83836040516112db929190612030565b60405180910390a1505050565b6112f061143e565b600073ffffffffffffffffffffffffffffffffffffffff168173ffffffffffffffffffffffffffffffffffffffff161415611360576040517f08c379a0000000000000000000000000000000000000000000000000000000008152600401611357906120cb565b60405180910390fd5b611369816115b0565b50565b60056020528060005260406000206000915054906101000a900473ffffffffffffffffffffffffffffffffffffffff1681565b600034116113e2576040517f08c379a00000000000000000000000000000000000000000000000000000000081526004016113d990612137565b60405180910390fd5b34600260008373ffffffffffffffffffffffffffffffffffffffff1673ffffffffffffffffffffffffffffffffffffffff16815260200190815260200160002060030160008282546114349190611f6e565b9250508190555050565b611446611674565b73ffffffffffffffffffffffffffffffffffffffff16611464610c39565b73ffffffffffffffffffffffffffffffffffffffff16146114ba576040517f08c379a00000000000000000000000000000000000000000000000000000000081526004016114b1906121a3565b60405180910390fd5b565b804710156114ff576040517f08c379a00000000000000000000000000000000000000000000000000000000081526004016114f69061220f565b60405180910390fd5b60008273ffffffffffffffffffffffffffffffffffffffff168260405161152590612260565b60006040518083038185875af1925050503d8060008114611562576040519150601f19603f3d011682016040523d82523d6000602084013e611567565b606091505b50509050806115ab576040517f08c379a00000000000000000000000000000000000000000000000000000000081526004016115a2906122e7565b60405180910390fd5b505050565b60008060009054906101000a900473ffffffffffffffffffffffffffffffffffffffff169050816000806101000a81548173ffffffffffffffffffffffffffffffffffffffff021916908373ffffffffffffffffffffffffffffffffffffffff1602179055508173ffffffffffffffffffffffffffffffffffffffff168173ffffffffffffffffffffffffffffffffffffffff167f8be0079c531659141344cd1fd0a4f28419497f9722a3daafe3b4186f6b6457e060405160405180910390a35050565b600033905090565b600080fd5b6000819050919050565b61169481611681565b811461169f57600080fd5b50565b6000813590506116b18161168b565b92915050565b6000602082840312156116cd576116cc61167c565b5b60006116db848285016116a2565b91505092915050565b600073ffffffffffffffffffffffffffffffffffffffff82169050919050565b600061170f826116e4565b9050919050565b61171f81611704565b811461172a57600080fd5b50565b60008135905061173c81611716565b92915050565b6000602082840312156117585761175761167c565b5b60006117668482850161172d565b91505092915050565b61177881611681565b82525050565b6000602082019050611793600083018461176f565b92915050565b6000819050919050565b6117ac81611799565b81146117b757600080fd5b50565b6000813590506117c9816117a3565b92915050565b60007fffffffffffffffff00000000000000000000000000000000000000000000000082169050919050565b611804816117cf565b811461180f57600080fd5b50565b600081359050611821816117fb565b92915050565b600080600080608085870312156118415761184061167c565b5b600061184f8782880161172d565b9450506020611860878288016117ba565b9350506040611871878288016117ba565b925050606061188287828801611812565b91505092959194509250565b60008115159050919050565b6118a38161188e565b82525050565b60006020820190506118be600083018461189a565b92915050565b6118cd81611704565b82525050565b60006020820190506118e860008301846118c4565b92915050565b6118f781611799565b82525050565b7f4e487b7100000000000000000000000000000000000000000000000000000000600052602160045260246000fd5b6002811061193d5761193c6118fd565b5b50565b600081905061194e8261192c565b919050565b600061195e82611940565b9050919050565b61196e81611953565b82525050565b600060ff82169050919050565b61198a81611974565b82525050565b600060a0820190506119a560008301886118ee565b6119b26020830187611965565b6119bf6040830186611981565b6119cc606083018561176f565b6119d9608083018461176f565b9695505050505050565b6000806000606084860312156119fc576119fb61167c565b5b6000611a0a8682870161172d565b9350506020611a1b8682870161172d565b9250506040611a2c868287016116a2565b9150509250925092565b611a3f816117cf565b82525050565b60018110611a5657611a556118fd565b5b50565b6000819050611a6782611a45565b919050565b6000611a7782611a59565b9050919050565b611a8781611a6c565b82525050565b600060c082019050611aa260008301896118ee565b611aaf60208301886118ee565b611abc6040830187611a36565b611ac96060830186611a7e565b611ad6608083018561176f565b611ae360a083018461176f565b979650505050505050565b60028110611afb57600080fd5b50565b600081359050611b0d81611aee565b92915050565b600080600060608486031215611b2c57611b2b61167c565b5b6000611b3a8682870161172d565b9350506020611b4b868287016117ba565b9250506040611b5c86828701611afe565b9150509250925092565b600060208284031215611b7c57611b7b61167c565b5b6000611b8a84828501611812565b91505092915050565b7f6465766963655374616b65000000000000000000000000000000000000000000815250565b6000604082019050611bcd60008301611b93565b611bda602083018461176f565b92915050565b600082825260208201905092915050565b7f446576696365206f6e6c79000000000000000000000000000000000000000000600082015250565b6000611c27600b83611be0565b9150611c3282611bf1565b602082019050919050565b60006020820190508181036000830152611c5681611c1a565b9050919050565b7f5769746864726177732064697361626c65640000000000000000000000000000600082015250565b6000611c93601283611be0565b9150611c9e82611c5d565b602082019050919050565b60006020820190508181036000830152611cc281611c86565b9050919050565b7f526567697374726174696f6e732064697361626c656400000000000000000000600082015250565b6000611cff601683611be0565b9150611d0a82611cc9565b602082019050919050565b60006020820190508181036000830152611d2e81611cf2565b9050919050565b7f4e6f7420656e6f75676820746f207374616b6500000000000000000000000000600082015250565b6000611d6b601383611be0565b9150611d7682611d35565b602082019050919050565b60006020820190508181036000830152611d9a81611d5e565b9050919050565b6000608082019050611db660008301876118c4565b611dc360208301866118ee565b611dd060408301856118ee565b611ddd6060830184611a36565b95945050505050565b7f70726f76696465725374616b6500000000000000000000000000000000000000815250565b6000604082019050611e2060008301611de6565b611e2d602083018461176f565b92915050565b7f56616c69646174696f6e20636f6e7472616374206e6f74207365740000000000600082015250565b6000611e69601b83611be0565b9150611e7482611e33565b602082019050919050565b60006020820190508181036000830152611e9881611e5c565b9050919050565b7f56616c69646174696f6e20636f6e7472616374206f6e6c790000000000000000600082015250565b6000611ed5601883611be0565b9150611ee082611e9f565b602082019050919050565b60006020820190508181036000830152611f0481611ec8565b9050919050565b7f4e487b7100000000000000000000000000000000000000000000000000000000600052601160045260246000fd5b6000611f4582611681565b9150611f5083611681565b925082821015611f6357611f62611f0b565b5b828203905092915050565b6000611f7982611681565b9150611f8483611681565b9250827fffffffffffffffffffffffffffffffffffffffffffffffffffffffffffffffff03821115611fb957611fb8611f0b565b5b828201905092915050565b7f50726f766964657273206f6e6c79000000000000000000000000000000000000600082015250565b6000611ffa600e83611be0565b915061200582611fc4565b602082019050919050565b6000602082019050818103600083015261202981611fed565b9050919050565b600060408201905061204560008301856118c4565b61205260208301846118ee565b9392505050565b7f4f776e61626c653a206e6577206f776e657220697320746865207a65726f206160008201527f6464726573730000000000000000000000000000000000000000000000000000602082015250565b60006120b5602683611be0565b91506120c082612059565b604082019050919050565b600060208201905081810360008301526120e4816120a8565b9050919050565b7f73656e74206e6f7468696e670000000000000000000000000000000000000000600082015250565b6000612121600c83611be0565b915061212c826120eb565b602082019050919050565b6000602082019050818103600083015261215081612114565b9050919050565b7f4f776e61626c653a2063616c6c6572206973206e6f7420746865206f776e6572600082015250565b600061218d602083611be0565b915061219882612157565b602082019050919050565b600060208201905081810360008301526121bc81612180565b9050919050565b7f416464726573733a20696e73756666696369656e742062616c616e6365000000600082015250565b60006121f9601d83611be0565b9150612204826121c3565b602082019050919050565b60006020820190508181036000830152612228816121ec565b9050919050565b600081905092915050565b50565b600061224a60008361222f565b91506122558261223a565b600082019050919050565b600061226b8261223d565b9150819050919050565b7f416464726573733a20756e61626c6520746f2073656e642076616c75652c207260008201527f6563697069656e74206d61792068617665207265766572746564000000000000602082015250565b60006122d1603a83611be0565b91506122dc82612275565b604082019050919050565b60006020820190508181036000830152612300816122c4565b905091905056fea2646970667358221220fb396dc2d325b8912238dc83eddb545e19992754a75fb2370612085f6d67885064736f6c634300080b0033",
  "linkReferences": {},
  "deployedLinkReferences": {}
}