{
  "_format": "hh-sol-artifact-1",
  "contractName": "MeshMobile",
  "sourceName": "contracts/MeshMobile.sol",
  "abi": [
    {
      "inputs": [
        {
          "internalType": "address",
          "name": "_registration",
          "type": "address"
        }
      ],
      "stateMutability": "nonpayable",
      "type": "constructor"
    },
    {
      "anonymous": false,
      "inputs": [
        {
          "indexed": false,
          "internalType": "bytes32",
          "name": "param",
          "type": "bytes32"
        },
        {
          "indexed": false,
          "internalType": "uint256",
          "name": "newValue",
          "type": "uint256"
        }
      ],
      "name": "LogParameterValueChanged",
      "type": "event"
    },
    {
      "anonymous": false,
      "inputs": [
        {
          "indexed": false,
          "internalType": "address",
          "name": "target",
          "type": "address"
        },
        {
          "indexed": false,
          "internalType": "uint256",
          "name": "amount",
          "type": "uint256"
        }
      ],
      "name": "LogRewarded",
      "type": "event"
    },
    {
      "anonymous": false,
      "inputs": [
        {
          "indexed": false,
          "internalType": "bytes32",
          "name": "identifier",
          "type": "bytes32"
        }
      ],
      "name": "LogValidationRequest",
      "type": "event"
    },
    {
      "anonymous": false,
      "inputs": [
        {
          "indexed": false,
          "internalType": "bytes32",
          "name": "identifier",
          "type": "bytes32"
        },
        {
          "indexed": false,
          "internalType": "bool",
          "name": "successful",
          "type": "bool"
        }
      ],
      "name": "LogValidationSettled",
      "type": "event"
    },
    {
      "anonymous": false,
      "inputs": [
        {
          "indexed": false,
          "internalType": "bytes32",
          "name": "identifier",
          "type": "bytes32"
        },
        {
          "indexed": false,
          "internalType": "bool",
          "name": "vote",
          "type": "bool"
        }
      ],
      "name": "LogVoteSubmitted",
      "type": "event"
    },
    {
      "anonymous": false,
      "inputs": [
        {
          "indexed": true,
          "internalType": "address",
          "name": "previousOwner",
          "type": "address"
        },
        {
          "indexed": true,
          "internalType": "address",
          "name": "newOwner",
          "type": "address"
        }
      ],
      "name": "OwnershipTransferred",
      "type": "event"
    },
    {
      "inputs": [],
      "name": "activeSubscriberThreshold",
      "outputs": [
        {
          "internalType": "uint256",
          "name": "",
          "type": "uint256"
        }
      ],
      "stateMutability": "view",
      "type": "function"
    },
    {
      "inputs": [],
      "name": "baseSubscriberFee",
      "outputs": [
        {
          "internalType": "uint256",
          "name": "",
          "type": "uint256"
        }
      ],
      "stateMutability": "view",
      "type": "function"
    },
    {
      "inputs": [],
      "name": "canValidate",
      "outputs": [
        {
          "internalType": "bool",
          "name": "",
          "type": "bool"
        }
      ],
      "stateMutability": "view",
      "type": "function"
    },
    {
      "inputs": [],
      "name": "coverageMultiplier",
      "outputs": [
        {
          "internalType": "uint256",
          "name": "",
          "type": "uint256"
        }
      ],
      "stateMutability": "view",
      "type": "function"
    },
    {
      "inputs": [],
      "name": "getPendingValidationCount",
      "outputs": [
        {
          "internalType": "uint256",
          "name": "count",
          "type": "uint256"
        }
      ],
      "stateMutability": "view",
      "type": "function"
    },
    {
      "inputs": [
        {
          "internalType": "uint64",
          "name": "",
          "type": "uint64"
        }
      ],
      "name": "imsiUsage",
      "outputs": [
        {
          "internalType": "uint32",
          "name": "",
          "type": "uint32"
        }
      ],
      "stateMutability": "view",
      "type": "function"
    },
    {
      "inputs": [],
      "name": "operatingFee",
      "outputs": [
        {
          "internalType": "uint256",
          "name": "",
          "type": "uint256"
        }
      ],
      "stateMutability": "view",
      "type": "function"
    },
    {
      "inputs": [],
      "name": "owner",
      "outputs": [
        {
          "internalType": "address",
          "name": "",
          "type": "address"
        }
      ],
      "stateMutability": "view",
      "type": "function"
    },
    {
      "inputs": [],
      "name": "panic",
      "outputs": [],
      "stateMutability": "nonpayable",
      "type": "function"
    },
    {
      "inputs": [
        {
          "internalType": "uint256",
          "name": "",
          "type": "uint256"
        }
      ],
      "name": "pendingValidations",
      "outputs": [
        {
          "internalType": "bytes32",
          "name": "",
          "type": "bytes32"
        }
      ],
      "stateMutability": "view",
      "type": "function"
    },
    {
      "inputs": [],
      "name": "registration",
      "outputs": [
        {
          "internalType": "contract IMeshMobileRegistration",
          "name": "",
          "type": "address"
        }
      ],
      "stateMutability": "view",
      "type": "function"
    },
    {
      "inputs": [],
      "name": "renounceOwnership",
      "outputs": [],
      "stateMutability": "nonpayable",
      "type": "function"
    },
    {
      "inputs": [
        {
          "internalType": "address",
          "name": "subject",
          "type": "address"
        },
        {
          "internalType": "uint64[]",
          "name": "subscribers",
          "type": "uint64[]"
        },
        {
          "internalType": "uint32[]",
          "name": "startTimes",
          "type": "uint32[]"
        },
        {
          "internalType": "uint32[]",
          "name": "endTimes",
          "type": "uint32[]"
        }
      ],
      "name": "requestValidation",
      "outputs": [],
      "stateMutability": "nonpayable",
      "type": "function"
    },
    {
      "inputs": [
        {
          "internalType": "uint256",
          "name": "newThreshold",
          "type": "uint256"
        }
      ],
      "name": "setActiveSubscriberThreshold",
      "outputs": [],
      "stateMutability": "nonpayable",
      "type": "function"
    },
    {
      "inputs": [
        {
          "internalType": "uint256",
          "name": "newFee",
          "type": "uint256"
        }
      ],
      "name": "setBaseSubscriberFee",
      "outputs": [],
      "stateMutability": "nonpayable",
      "type": "function"
    },
    {
      "inputs": [
        {
          "internalType": "uint256",
          "name": "newMultiplier",
          "type": "uint256"
        }
      ],
      "name": "setCoverageMultiplier",
      "outputs": [],
      "stateMutability": "nonpayable",
      "type": "function"
    },
    {
      "inputs": [
        {
          "internalType": "uint256",
          "name": "newFee",
          "type": "uint256"
        }
      ],
      "name": "setOperatingFee",
      "outputs": [],
      "stateMutability": "nonpayable",
      "type": "function"
    },
    {
      "inputs": [
        {
          "internalType": "uint256",
          "name": "newFee",
          "type": "uint256"
        }
      ],
      "name": "setTimeConnectedFee",
      "outputs": [],
      "stateMutability": "nonpayable",
      "type": "function"
    },
    {
      "inputs": [
        {
          "internalType": "bytes32",
          "name": "identifier",
          "type": "bytes32"
        },
        {
          "internalType": "bool",
          "name": "vote",
          "type": "bool"
        }
      ],
      "name": "submitVote",
      "outputs": [],
      "stateMutability": "nonpayable",
      "type": "function"
    },
    {
      "inputs": [],
      "name": "timeConnectedFee",
      "outputs": [
        {
          "internalType": "uint256",
          "name": "",
          "type": "uint256"
        }
      ],
      "stateMutability": "view",
      "type": "function"
    },
    {
      "inputs": [],
      "name": "timeConnectedInterval",
      "outputs": [
        {
          "internalType": "uint256",
          "name": "",
          "type": "uint256"
        }
      ],
      "stateMutability": "view",
      "type": "function"
    },
    {
      "inputs": [],
      "name": "toggleValidations",
      "outputs": [],
      "stateMutability": "nonpayable",
      "type": "function"
    },
    {
      "inputs": [
        {
          "internalType": "address",
          "name": "newOwner",
          "type": "address"
        }
      ],
      "name": "transferOwnership",
      "outputs": [],
      "stateMutability": "nonpayable",
      "type": "function"
    },
    {
      "inputs": [
        {
          "internalType": "bytes32",
          "name": "",
          "type": "bytes32"
        }
      ],
      "name": "validationRequests",
      "outputs": [
        {
          "internalType": "address",
          "name": "initiator",
          "type": "address"
        },
        {
          "internalType": "address",
          "name": "idp",
          "type": "address"
        },
        {
          "internalType": "uint8",
          "name": "requiredVotes",
          "type": "uint8"
        },
        {
          "internalType": "uint256",
          "name": "reward",
          "type": "uint256"
        },
        {
          "internalType": "uint8",
          "name": "subjectCount",
          "type": "uint8"
        },
        {
          "internalType": "uint8",
          "name": "votes",
          "type": "uint8"
        }
      ],
      "stateMutability": "view",
      "type": "function"
    },
    {
      "inputs": [
        {
          "internalType": "bytes32",
          "name": "",
          "type": "bytes32"
        },
        {
          "internalType": "uint256",
          "name": "",
          "type": "uint256"
        }
      ],
      "name": "validationSubjects",
      "outputs": [
        {
          "internalType": "uint64",
          "name": "imsi",
          "type": "uint64"
        },
        {
          "internalType": "uint32",
          "name": "connected",
          "type": "uint32"
        },
        {
          "internalType": "uint32",
          "name": "ended",
          "type": "uint32"
        }
      ],
      "stateMutability": "view",
      "type": "function"
    },
    {
      "inputs": [
        {
          "internalType": "bytes32",
          "name": "",
          "type": "bytes32"
        },
        {
          "internalType": "uint256",
          "name": "",
          "type": "uint256"
        }
      ],
      "name": "validationVotes",
      "outputs": [
        {
          "internalType": "address",
          "name": "participant",
          "type": "address"
        },
        {
          "internalType": "bool",
          "name": "vote",
          "type": "bool"
        }
      ],
      "stateMutability": "view",
      "type": "function"
    },
    {
      "stateMutability": "payable",
      "type": "receive"
    }
  ],
  "bytecode": "0x608060405266038d7ea4c68000600655610400600755655af3107a4000600855600a6009556001600a55633b9aca00600b556001600c60006101000a81548160ff0219169083151502179055503480156200005957600080fd5b5060405162002f8838038062002f8883398181016040528101906200007f91906200021d565b6200009f62000093620000e760201b60201c565b620000ef60201b60201c565b80600c60016101000a81548173ffffffffffffffffffffffffffffffffffffffff021916908373ffffffffffffffffffffffffffffffffffffffff160217905550506200024f565b600033905090565b60008060009054906101000a900473ffffffffffffffffffffffffffffffffffffffff169050816000806101000a81548173ffffffffffffffffffffffffffffffffffffffff021916908373ffffffffffffffffffffffffffffffffffffffff1602179055508173ffffffffffffffffffffffffffffffffffffffff168173ffffffffffffffffffffffffffffffffffffffff167f8be0079c531659141344cd1fd0a4f28419497f9722a3daafe3b4186f6b6457e060405160405180910390a35050565b600080fd5b600073ffffffffffffffffffffffffffffffffffffffff82169050919050565b6000620001e582620001b8565b9050919050565b620001f781620001d8565b81146200020357600080fd5b50565b6000815190506200021781620001ec565b92915050565b600060208284031215620002365762000235620001b3565b5b6000620002468482850162000206565b91505092915050565b612d29806200025f6000396000f3fe6080604052600436106101855760003560e01c8063715018a6116100d1578063efd8496b1161008a578063f7b9755c11610064578063f7b9755c1461055f578063faecd7c514610588578063faf17087146105b1578063fb7e0def146105da5761018c565b8063efd8496b146104cd578063f2fde38b1461050b578063f46148b2146105345761018c565b8063715018a6146103cf5780637651f56e146103e65780638da5cb5b14610423578063c76bbb881461044e578063c82b1f7c14610477578063d69c2463146104a25761018c565b80632a2306601161013e5780634700d305116101185780634700d305146103225780634d9f897c146103395780635e3057351461037b5780636e7c04d5146103925761018c565b80632a230660146102a157806342c9fc63146102cc578063443bd1d0146102f75761018c565b8063087b365c1461019157806309bbc452146101bc5780630a4387a4146101e75780630a95aa4b14610210578063208caf8e1461023957806324faf573146102625761018c565b3661018c57005b600080fd5b34801561019d57600080fd5b506101a6610605565b6040516101b39190611a6b565b60405180910390f35b3480156101c857600080fd5b506101d161060b565b6040516101de9190611a6b565b60405180910390f35b3480156101f357600080fd5b5061020e60048036038101906102099190611d90565b610611565b005b34801561021c57600080fd5b5061023760048036038101906102329190611e77565b610b87565b005b34801561024557600080fd5b50610260600480360381019061025b9190611f12565b610bd2565b005b34801561026e57600080fd5b5061028960048036038101906102849190611f52565b6112d1565b60405161029893929190611fb0565b60405180910390f35b3480156102ad57600080fd5b506102b6611348565b6040516102c39190611a6b565b60405180910390f35b3480156102d857600080fd5b506102e161134e565b6040516102ee9190611a6b565b60405180910390f35b34801561030357600080fd5b5061030c611354565b6040516103199190612046565b60405180910390f35b34801561032e57600080fd5b5061033761137a565b005b34801561034557600080fd5b50610360600480360381019061035b9190612061565b61139f565b604051610372969594939291906120b9565b60405180910390f35b34801561038757600080fd5b50610390611442565b005b34801561039e57600080fd5b506103b960048036038101906103b4919061211a565b611476565b6040516103c69190612147565b60405180910390f35b3480156103db57600080fd5b506103e4611499565b005b3480156103f257600080fd5b5061040d60048036038101906104089190611e77565b6114ad565b60405161041a9190612171565b60405180910390f35b34801561042f57600080fd5b506104386114d1565b604051610445919061218c565b60405180910390f35b34801561045a57600080fd5b5061047560048036038101906104709190611e77565b6114fa565b005b34801561048357600080fd5b5061048c611545565b6040516104999190611a6b565b60405180910390f35b3480156104ae57600080fd5b506104b761154b565b6040516104c491906121b6565b60405180910390f35b3480156104d957600080fd5b506104f460048036038101906104ef9190611f52565b61155e565b6040516105029291906121d1565b60405180910390f35b34801561051757600080fd5b50610532600480360381019061052d91906121fa565b6115c8565b005b34801561054057600080fd5b5061054961164c565b6040516105569190611a6b565b60405180910390f35b34801561056b57600080fd5b5061058660048036038101906105819190611e77565b611652565b005b34801561059457600080fd5b506105af60048036038101906105aa9190611e77565b61169d565b005b3480156105bd57600080fd5b506105d860048036038101906105d39190611e77565b6116e8565b005b3480156105e657600080fd5b506105ef611733565b6040516105fc9190611a6b565b60405180910390f35b60065481565b600b5481565b6000600c60019054906101000a900473ffffffffffffffffffffffffffffffffffffffff1673ffffffffffffffffffffffffffffffffffffffff1663b8f8bbdf336040518263ffffffff1660e01b815260040161066e919061218c565b60a0604051808303816000875af115801561068d573d6000803e3d6000fd5b505050506040513d601f19601f820116820180604052508101906106b191906122a2565b5050505090506000801b8114156106fd576040517f08c379a00000000000000000000000000000000000000000000000000000000081526004016106f49061237a565b60405180910390fd5b600c60009054906101000a900460ff1661074c576040517f08c379a0000000000000000000000000000000000000000000000000000000008152600401610743906123e6565b60405180910390fd5b6000610759858585611740565b9050600080600c60019054906101000a900473ffffffffffffffffffffffffffffffffffffffff1673ffffffffffffffffffffffffffffffffffffffff1663e7747ccb896040518263ffffffff1660e01b81526004016107b9919061218c565b60c0604051808303816000875af11580156107d8573d6000803e3d6000fd5b505050506040513d601f19601f820116820180604052508101906107fc9190612483565b50945050505091506000801b82141561084a576040517f08c379a00000000000000000000000000000000000000000000000000000000081526004016108419061255c565b60405180910390fd5b8281101561088d576040517f08c379a0000000000000000000000000000000000000000000000000000000008152600401610884906125c8565b60405180910390fd5b60003360601b8960601b4360001b6040516020016108ad93929190612656565b6040516020818303038152906040528051906020012090506000600160008381526020019081526020016000209050338160000160006101000a81548173ffffffffffffffffffffffffffffffffffffffff021916908373ffffffffffffffffffffffffffffffffffffffff160217905550898160010160006101000a81548173ffffffffffffffffffffffffffffffffffffffff021916908373ffffffffffffffffffffffffffffffffffffffff16021790555060018160010160146101000a81548160ff021916908360ff16021790555084816002018190555088518160030160006101000a81548160ff021916908360ff160217905550600060026000848152602001908152602001600020905060005b8a518163ffffffff161015610b19578160405180606001604052808d8463ffffffff16815181106109f5576109f4612693565b5b602002602001015167ffffffffffffffff1681526020018c8463ffffffff1681518110610a2557610a24612693565b5b602002602001015163ffffffff1681526020018b8463ffffffff1681518110610a5157610a50612693565b5b602002602001015163ffffffff168152509080600181540180825580915050600190039060005260206000200160009091909190915060008201518160000160006101000a81548167ffffffffffffffff021916908367ffffffffffffffff16021790555060208201518160000160086101000a81548163ffffffff021916908363ffffffff160217905550604082015181600001600c6101000a81548163ffffffff021916908363ffffffff16021790555050508080610b11906126f1565b9150506109c1565b5060058390806001815401808255809150506001900390600052602060002001600090919091909150557f313f763cb94623da26fb7e8931f4b2fdaff49a7b86fb59b0dc520c2065bf9e4083604051610b729190612171565b60405180910390a15050505050505050505050565b610b8f611814565b806008819055507f5387552741fc4ed0c866c8c7dc4689686fe6ed01065961919026fa8296a14e52600854604051610bc79190612744565b60405180910390a150565b813373ffffffffffffffffffffffffffffffffffffffff166001600083815260200190815260200160002060010160009054906101000a900473ffffffffffffffffffffffffffffffffffffffff1673ffffffffffffffffffffffffffffffffffffffff1614610c77576040517f08c379a0000000000000000000000000000000000000000000000000000000008152600401610c6e906127b7565b60405180910390fd5b600060016000858152602001908152602001600020905060008160000160009054906101000a900473ffffffffffffffffffffffffffffffffffffffff16905060008260010160009054906101000a900473ffffffffffffffffffffffffffffffffffffffff16905060006003600088815260200190815260200160002090508060405180604001604052803373ffffffffffffffffffffffffffffffffffffffff1681526020018815158152509080600181540180825580915050600190039060005260206000200160009091909190915060008201518160000160006101000a81548173ffffffffffffffffffffffffffffffffffffffff021916908373ffffffffffffffffffffffffffffffffffffffff16021790555060208201518160000160146101000a81548160ff021916908315150217905550505080805490508460030160016101000a81548160ff021916908360ff1602179055508360010160149054906101000a900460ff1660ff168180549050141561128f5760008060005b8380549050811015610e7257838181548110610e1957610e18612693565b5b9060005260206000200160000160149054906101000a900460ff16610e4d57600182610e4591906127d7565b915081610e5e565b600183610e5a91906127d7565b9250825b508080610e6a9061280e565b915050610dfa565b5060008160ff168360ff161190507f4fb068f5e417e7b5c8327cb8d2947329f5d22ccda91138a813ba159652109f4c8a82604051610eb1929190612857565b60405180910390a180156110c857600087600201549050600c60019054906101000a900473ffffffffffffffffffffffffffffffffffffffff1673ffffffffffffffffffffffffffffffffffffffff1663beabacc88789846040518463ffffffff1660e01b8152600401610f2793929190612880565b600060405180830381600087803b158015610f4157600080fd5b505af1158015610f55573d6000803e3d6000fd5b505050506000600260008d8152602001908152602001600020905060005b8960030160009054906101000a900460ff1660ff168163ffffffff16101561108b576000828263ffffffff1681548110610fb057610faf612693565b5b90600052602060002001905060008160000160009054906101000a900467ffffffffffffffff16905060008260000160089054906101000a900463ffffffff1683600001600c9054906101000a900463ffffffff1661100f91906128b7565b905080600460008467ffffffffffffffff1667ffffffffffffffff16815260200190815260200160002060008282829054906101000a900463ffffffff1661105791906128eb565b92506101000a81548163ffffffff021916908363ffffffff1602179055505050508080611083906126f1565b915050610f73565b507f1925ffbbdee9fcd8ceb3c72473e81e4f939f9b64211aa5dd103299fb232dbe3588836040516110bd929190612925565b60405180910390a150505b60005b6005805490508163ffffffff1610156111a457600060058263ffffffff16815481106110fa576110f9612693565b5b90600052602060002001549050808c14156111905760056001600580549050611123919061294e565b8154811061113457611133612693565b5b906000526020600020015460058363ffffffff168154811061115957611158612693565b5b9060005260206000200181905550600580548061117957611178612982565b5b600190038181906000526020600020016000905590555b50808061119c906126f1565b9150506110cb565b50600160008b8152602001908152602001600020600080820160006101000a81549073ffffffffffffffffffffffffffffffffffffffff02191690556001820160006101000a81549073ffffffffffffffffffffffffffffffffffffffff02191690556001820160146101000a81549060ff021916905560028201600090556003820160006101000a81549060ff02191690556003820160016101000a81549060ff02191690555050600260008b8152602001908152602001600020600061126c919061195e565b600360008b8152602001908152602001600020600061128b919061197f565b5050505b7f87c7da8bd0bda83220eee68845038de1c18cb163a5abd337bfcce4ed00206c8e87876040516112c0929190612857565b60405180910390a150505050505050565b600260205281600052604060002081815481106112ed57600080fd5b90600052602060002001600091509150508060000160009054906101000a900467ffffffffffffffff16908060000160089054906101000a900463ffffffff169080600001600c9054906101000a900463ffffffff16905083565b600a5481565b60075481565b600c60019054906101000a900473ffffffffffffffffffffffffffffffffffffffff1681565b611382611814565b6000600c60006101000a81548160ff021916908315150217905550565b60016020528060005260406000206000915090508060000160009054906101000a900473ffffffffffffffffffffffffffffffffffffffff16908060010160009054906101000a900473ffffffffffffffffffffffffffffffffffffffff16908060010160149054906101000a900460ff16908060020154908060030160009054906101000a900460ff16908060030160019054906101000a900460ff16905086565b61144a611814565b600c60009054906101000a900460ff1615600c60006101000a81548160ff021916908315150217905550565b60046020528060005260406000206000915054906101000a900463ffffffff1681565b6114a1611814565b6114ab6000611892565b565b600581815481106114bd57600080fd5b906000526020600020016000915090505481565b60008060009054906101000a900473ffffffffffffffffffffffffffffffffffffffff16905090565b611502611814565b806006819055507f5387552741fc4ed0c866c8c7dc4689686fe6ed01065961919026fa8296a14e5260065460405161153a91906129d7565b60405180910390a150565b60085481565b600c60009054906101000a900460ff1681565b6003602052816000526040600020818154811061157a57600080fd5b90600052602060002001600091509150508060000160009054906101000a900473ffffffffffffffffffffffffffffffffffffffff16908060000160149054906101000a900460ff16905082565b6115d0611814565b600073ffffffffffffffffffffffffffffffffffffffff168173ffffffffffffffffffffffffffffffffffffffff161415611640576040517f08c379a000000000000000000000000000000000000000000000000000000000815260040161163790612a70565b60405180910390fd5b61164981611892565b50565b60095481565b61165a611814565b80600a819055507f5387552741fc4ed0c866c8c7dc4689686fe6ed01065961919026fa8296a14e52600a546040516116929190612ab6565b60405180910390a150565b6116a5611814565b80600b819055507f5387552741fc4ed0c866c8c7dc4689686fe6ed01065961919026fa8296a14e52600b546040516116dd9190612b03565b60405180910390a150565b6116f0611814565b806007819055507f5387552741fc4ed0c866c8c7dc4689686fe6ed01065961919026fa8296a14e526007546040516117289190612b50565b60405180910390a150565b6000600580549050905090565b60008060065485516117529190612b77565b905060005b85518163ffffffff161015611808576000858263ffffffff168151811061178157611780612693565b5b6020026020010151858363ffffffff16815181106117a2576117a1612693565b5b60200260200101516117b491906128b7565b905060008163ffffffff1611156117f4576009546008548263ffffffff166117dc9190612b77565b6117e69190612c00565b836117f19190612c31565b92505b508080611800906126f1565b915050611757565b50809150509392505050565b61181c611956565b73ffffffffffffffffffffffffffffffffffffffff1661183a6114d1565b73ffffffffffffffffffffffffffffffffffffffff1614611890576040517f08c379a000000000000000000000000000000000000000000000000000000000815260040161188790612cd3565b60405180910390fd5b565b60008060009054906101000a900473ffffffffffffffffffffffffffffffffffffffff169050816000806101000a81548173ffffffffffffffffffffffffffffffffffffffff021916908373ffffffffffffffffffffffffffffffffffffffff1602179055508173ffffffffffffffffffffffffffffffffffffffff168173ffffffffffffffffffffffffffffffffffffffff167f8be0079c531659141344cd1fd0a4f28419497f9722a3daafe3b4186f6b6457e060405160405180910390a35050565b600033905090565b508054600082559060005260206000209081019061197c91906119a0565b50565b508054600082559060005260206000209081019061199d9190611a00565b50565b5b808211156119fc57600080820160006101000a81549067ffffffffffffffff02191690556000820160086101000a81549063ffffffff021916905560008201600c6101000a81549063ffffffff0219169055506001016119a1565b5090565b5b80821115611a4e57600080820160006101000a81549073ffffffffffffffffffffffffffffffffffffffff02191690556000820160146101000a81549060ff021916905550600101611a01565b5090565b6000819050919050565b611a6581611a52565b82525050565b6000602082019050611a806000830184611a5c565b92915050565b6000604051905090565b600080fd5b600080fd5b600073ffffffffffffffffffffffffffffffffffffffff82169050919050565b6000611ac582611a9a565b9050919050565b611ad581611aba565b8114611ae057600080fd5b50565b600081359050611af281611acc565b92915050565b600080fd5b6000601f19601f8301169050919050565b7f4e487b7100000000000000000000000000000000000000000000000000000000600052604160045260246000fd5b611b4682611afd565b810181811067ffffffffffffffff82111715611b6557611b64611b0e565b5b80604052505050565b6000611b78611a86565b9050611b848282611b3d565b919050565b600067ffffffffffffffff821115611ba457611ba3611b0e565b5b602082029050602081019050919050565b600080fd5b600067ffffffffffffffff82169050919050565b611bd781611bba565b8114611be257600080fd5b50565b600081359050611bf481611bce565b92915050565b6000611c0d611c0884611b89565b611b6e565b90508083825260208201905060208402830185811115611c3057611c2f611bb5565b5b835b81811015611c595780611c458882611be5565b845260208401935050602081019050611c32565b5050509392505050565b600082601f830112611c7857611c77611af8565b5b8135611c88848260208601611bfa565b91505092915050565b600067ffffffffffffffff821115611cac57611cab611b0e565b5b602082029050602081019050919050565b600063ffffffff82169050919050565b611cd681611cbd565b8114611ce157600080fd5b50565b600081359050611cf381611ccd565b92915050565b6000611d0c611d0784611c91565b611b6e565b90508083825260208201905060208402830185811115611d2f57611d2e611bb5565b5b835b81811015611d585780611d448882611ce4565b845260208401935050602081019050611d31565b5050509392505050565b600082601f830112611d7757611d76611af8565b5b8135611d87848260208601611cf9565b91505092915050565b60008060008060808587031215611daa57611da9611a90565b5b6000611db887828801611ae3565b945050602085013567ffffffffffffffff811115611dd957611dd8611a95565b5b611de587828801611c63565b935050604085013567ffffffffffffffff811115611e0657611e05611a95565b5b611e1287828801611d62565b925050606085013567ffffffffffffffff811115611e3357611e32611a95565b5b611e3f87828801611d62565b91505092959194509250565b611e5481611a52565b8114611e5f57600080fd5b50565b600081359050611e7181611e4b565b92915050565b600060208284031215611e8d57611e8c611a90565b5b6000611e9b84828501611e62565b91505092915050565b6000819050919050565b611eb781611ea4565b8114611ec257600080fd5b50565b600081359050611ed481611eae565b92915050565b60008115159050919050565b611eef81611eda565b8114611efa57600080fd5b50565b600081359050611f0c81611ee6565b92915050565b60008060408385031215611f2957611f28611a90565b5b6000611f3785828601611ec5565b9250506020611f4885828601611efd565b9150509250929050565b60008060408385031215611f6957611f68611a90565b5b6000611f7785828601611ec5565b9250506020611f8885828601611e62565b9150509250929050565b611f9b81611bba565b82525050565b611faa81611cbd565b82525050565b6000606082019050611fc56000830186611f92565b611fd26020830185611fa1565b611fdf6040830184611fa1565b949350505050565b6000819050919050565b600061200c61200761200284611a9a565b611fe7565b611a9a565b9050919050565b600061201e82611ff1565b9050919050565b600061203082612013565b9050919050565b61204081612025565b82525050565b600060208201905061205b6000830184612037565b92915050565b60006020828403121561207757612076611a90565b5b600061208584828501611ec5565b91505092915050565b61209781611aba565b82525050565b600060ff82169050919050565b6120b38161209d565b82525050565b600060c0820190506120ce600083018961208e565b6120db602083018861208e565b6120e860408301876120aa565b6120f56060830186611a5c565b61210260808301856120aa565b61210f60a08301846120aa565b979650505050505050565b6000602082840312156121305761212f611a90565b5b600061213e84828501611be5565b91505092915050565b600060208201905061215c6000830184611fa1565b92915050565b61216b81611ea4565b82525050565b60006020820190506121866000830184612162565b92915050565b60006020820190506121a1600083018461208e565b92915050565b6121b081611eda565b82525050565b60006020820190506121cb60008301846121a7565b92915050565b60006040820190506121e6600083018561208e565b6121f360208301846121a7565b9392505050565b6000602082840312156122105761220f611a90565b5b600061221e84828501611ae3565b91505092915050565b60008151905061223681611eae565b92915050565b6002811061224957600080fd5b50565b60008151905061225b8161223c565b92915050565b61226a8161209d565b811461227557600080fd5b50565b60008151905061228781612261565b92915050565b60008151905061229c81611e4b565b92915050565b600080600080600060a086880312156122be576122bd611a90565b5b60006122cc88828901612227565b95505060206122dd8882890161224c565b94505060406122ee88828901612278565b93505060606122ff8882890161228d565b92505060806123108882890161228d565b9150509295509295909350565b600082825260208201905092915050565b7f446576696365206f6e6c79000000000000000000000000000000000000000000600082015250565b6000612364600b8361231d565b915061236f8261232e565b602082019050919050565b6000602082019050818103600083015261239381612357565b9050919050565b7f56616c69646174696f6e732064697361626c6564000000000000000000000000600082015250565b60006123d060148361231d565b91506123db8261239a565b602082019050919050565b600060208201905081810360008301526123ff816123c3565b9050919050565b60007fffffffffffffffff00000000000000000000000000000000000000000000000082169050919050565b61243b81612406565b811461244657600080fd5b50565b60008151905061245881612432565b92915050565b6001811061246b57600080fd5b50565b60008151905061247d8161245e565b92915050565b60008060008060008060c087890312156124a05761249f611a90565b5b60006124ae89828a01612227565b96505060206124bf89828a01612227565b95505060406124d089828a01612449565b94505060606124e189828a0161246e565b93505060806124f289828a0161228d565b92505060a061250389828a0161228d565b9150509295509295509295565b7f496e76616c69642070726f766964657200000000000000000000000000000000600082015250565b600061254660108361231d565b915061255182612510565b602082019050919050565b6000602082019050818103600083015261257581612539565b9050919050565b7f4e6f7420656e6f756768206465706f7369740000000000000000000000000000600082015250565b60006125b260128361231d565b91506125bd8261257c565b602082019050919050565b600060208201905081810360008301526125e1816125a5565b9050919050565b60007fffffffffffffffffffffffffffffffffffffffff00000000000000000000000082169050919050565b6000819050919050565b61262f61262a826125e8565b612614565b82525050565b6000819050919050565b61265061264b82611ea4565b612635565b82525050565b6000612662828661261e565b601482019150612672828561261e565b601482019150612682828461263f565b602082019150819050949350505050565b7f4e487b7100000000000000000000000000000000000000000000000000000000600052603260045260246000fd5b7f4e487b7100000000000000000000000000000000000000000000000000000000600052601160045260246000fd5b60006126fc82611cbd565b915063ffffffff821415612713576127126126c2565b5b600182019050919050565b7f74696d65436f6e6e656374656446656500000000000000000000000000000000815250565b60006040820190506127586000830161271e565b6127656020830184611a5c565b92915050565b7f5375626a656374206f6e6c790000000000000000000000000000000000000000600082015250565b60006127a1600c8361231d565b91506127ac8261276b565b602082019050919050565b600060208201905081810360008301526127d081612794565b9050919050565b60006127e28261209d565b91506127ed8361209d565b92508260ff03821115612803576128026126c2565b5b828201905092915050565b600061281982611a52565b91507fffffffffffffffffffffffffffffffffffffffffffffffffffffffffffffffff82141561284c5761284b6126c2565b5b600182019050919050565b600060408201905061286c6000830185612162565b61287960208301846121a7565b9392505050565b6000606082019050612895600083018661208e565b6128a2602083018561208e565b6128af6040830184611a5c565b949350505050565b60006128c282611cbd565b91506128cd83611cbd565b9250828210156128e0576128df6126c2565b5b828203905092915050565b60006128f682611cbd565b915061290183611cbd565b92508263ffffffff0382111561291a576129196126c2565b5b828201905092915050565b600060408201905061293a600083018561208e565b6129476020830184611a5c565b9392505050565b600061295982611a52565b915061296483611a52565b925082821015612977576129766126c2565b5b828203905092915050565b7f4e487b7100000000000000000000000000000000000000000000000000000000600052603160045260246000fd5b7f6261736553756273637269626572466565000000000000000000000000000000815250565b60006040820190506129eb600083016129b1565b6129f86020830184611a5c565b92915050565b7f4f776e61626c653a206e6577206f776e657220697320746865207a65726f206160008201527f6464726573730000000000000000000000000000000000000000000000000000602082015250565b6000612a5a60268361231d565b9150612a65826129fe565b604082019050919050565b60006020820190508181036000830152612a8981612a4d565b9050919050565b7f636f7665726167654d756c7469706c6965720000000000000000000000000000815250565b6000604082019050612aca60008301612a90565b612ad76020830184611a5c565b92915050565b7f6f7065726174696e674665650000000000000000000000000000000000000000815250565b6000604082019050612b1760008301612add565b612b246020830184611a5c565b92915050565b7f616374697665537562736372696265725468726573686f6c6400000000000000815250565b6000604082019050612b6460008301612b2a565b612b716020830184611a5c565b92915050565b6000612b8282611a52565b9150612b8d83611a52565b9250817fffffffffffffffffffffffffffffffffffffffffffffffffffffffffffffffff0483118215151615612bc657612bc56126c2565b5b828202905092915050565b7f4e487b7100000000000000000000000000000000000000000000000000000000600052601260045260246000fd5b6000612c0b82611a52565b9150612c1683611a52565b925082612c2657612c25612bd1565b5b828204905092915050565b6000612c3c82611a52565b9150612c4783611a52565b9250827fffffffffffffffffffffffffffffffffffffffffffffffffffffffffffffffff03821115612c7c57612c7b6126c2565b5b828201905092915050565b7f4f776e61626c653a2063616c6c6572206973206e6f7420746865206f776e6572600082015250565b6000612cbd60208361231d565b9150612cc882612c87565b602082019050919050565b60006020820190508181036000830152612cec81612cb0565b905091905056fea26469706673582212204afd25e85afe009093378d20b20b201c2801f7b892d427bddbc209147176fa2a64736f6c634300080b0033",
  "linkReferences": {},
  "deployedLinkReferences": {}
}