{
  "_format": "hh-sol-artifact-1",
  "contractName": "MeshMobileUptimeRewards",
  "sourceName": "contracts/UptimeRewards.sol",
  "abi": [
    {
      "inputs": [
        {
          "internalType": "address",
          "name": "_registration",
          "type": "address"
        }
      ],
      "stateMutability": "nonpayable",
      "type": "constructor"
    },
    {
      "anonymous": false,
      "inputs": [
        {
          "indexed": false,
          "internalType": "bytes32",
          "name": "identifier",
          "type": "bytes32"
        }
      ],
      "name": "LogUptimeRequest",
      "type": "event"
    },
    {
      "anonymous": false,
      "inputs": [
        {
          "indexed": false,
          "internalType": "bytes32",
          "name": "identifier",
          "type": "bytes32"
        },
        {
          "indexed": false,
          "internalType": "bool",
          "name": "success",
          "type": "bool"
        }
      ],
      "name": "LogUptimeResolution",
      "type": "event"
    },
    {
      "anonymous": false,
      "inputs": [
        {
          "indexed": false,
          "internalType": "bytes32",
          "name": "identifier",
          "type": "bytes32"
        }
      ],
      "name": "LogUptimeResponse",
      "type": "event"
    },
    {
      "anonymous": false,
      "inputs": [
        {
          "indexed": true,
          "internalType": "address",
          "name": "previousOwner",
          "type": "address"
        },
        {
          "indexed": true,
          "internalType": "address",
          "name": "newOwner",
          "type": "address"
        }
      ],
      "name": "OwnershipTransferred",
      "type": "event"
    },
    {
      "inputs": [
        {
          "internalType": "address",
          "name": "",
          "type": "address"
        }
      ],
      "name": "LastUptimeRequest",
      "outputs": [
        {
          "internalType": "uint256",
          "name": "",
          "type": "uint256"
        }
      ],
      "stateMutability": "view",
      "type": "function"
    },
    {
      "inputs": [
        {
          "internalType": "address",
          "name": "",
          "type": "address"
        }
      ],
      "name": "PendingRewards",
      "outputs": [
        {
          "internalType": "uint256",
          "name": "",
          "type": "uint256"
        }
      ],
      "stateMutability": "view",
      "type": "function"
    },
    {
      "inputs": [
        {
          "internalType": "bytes32",
          "name": "identifier",
          "type": "bytes32"
        },
        {
          "internalType": "uint32",
          "name": "timestamp",
          "type": "uint32"
        }
      ],
      "name": "ReportUptime",
      "outputs": [],
      "stateMutability": "nonpayable",
      "type": "function"
    },
    {
      "inputs": [
        {
          "internalType": "address",
          "name": "target",
          "type": "address"
        }
      ],
      "name": "RequestUptime",
      "outputs": [],
      "stateMutability": "nonpayable",
      "type": "function"
    },
    {
      "inputs": [
        {
          "internalType": "address",
          "name": "",
          "type": "address"
        },
        {
          "internalType": "uint256",
          "name": "",
          "type": "uint256"
        }
      ],
      "name": "SubjectUptimeData",
      "outputs": [
        {
          "internalType": "bytes32",
          "name": "",
          "type": "bytes32"
        }
      ],
      "stateMutability": "view",
      "type": "function"
    },
    {
      "inputs": [
        {
          "internalType": "bytes32",
          "name": "",
          "type": "bytes32"
        }
      ],
      "name": "UptimeRequests",
      "outputs": [
        {
          "internalType": "uint256",
          "name": "block",
          "type": "uint256"
        },
        {
          "internalType": "address",
          "name": "initiator",
          "type": "address"
        },
        {
          "internalType": "address",
          "name": "subject",
          "type": "address"
        },
        {
          "internalType": "uint32",
          "name": "uptime",
          "type": "uint32"
        },
        {
          "internalType": "uint8",
          "name": "approvals",
          "type": "uint8"
        }
      ],
      "stateMutability": "view",
      "type": "function"
    },
    {
      "inputs": [
        {
          "internalType": "bytes32",
          "name": "identifier",
          "type": "bytes32"
        },
        {
          "internalType": "bool",
          "name": "vote",
          "type": "bool"
        }
      ],
      "name": "VoteUptime",
      "outputs": [],
      "stateMutability": "nonpayable",
      "type": "function"
    },
    {
      "inputs": [],
      "name": "epochBlockCount",
      "outputs": [
        {
          "internalType": "uint32",
          "name": "",
          "type": "uint32"
        }
      ],
      "stateMutability": "view",
      "type": "function"
    },
    {
      "inputs": [],
      "name": "initiatorReward",
      "outputs": [
        {
          "internalType": "uint256",
          "name": "",
          "type": "uint256"
        }
      ],
      "stateMutability": "view",
      "type": "function"
    },
    {
      "inputs": [],
      "name": "maxRequestsPerEpoch",
      "outputs": [
        {
          "internalType": "uint8",
          "name": "",
          "type": "uint8"
        }
      ],
      "stateMutability": "view",
      "type": "function"
    },
    {
      "inputs": [],
      "name": "owner",
      "outputs": [
        {
          "internalType": "address",
          "name": "",
          "type": "address"
        }
      ],
      "stateMutability": "view",
      "type": "function"
    },
    {
      "inputs": [],
      "name": "renounceOwnership",
      "outputs": [],
      "stateMutability": "nonpayable",
      "type": "function"
    },
    {
      "inputs": [
        {
          "internalType": "address",
          "name": "newOwner",
          "type": "address"
        }
      ],
      "name": "transferOwnership",
      "outputs": [],
      "stateMutability": "nonpayable",
      "type": "function"
    },
    {
      "inputs": [],
      "name": "uptimeReward",
      "outputs": [
        {
          "internalType": "uint256",
          "name": "",
          "type": "uint256"
        }
      ],
      "stateMutability": "view",
      "type": "function"
    }
  ],
  "bytecode": "0x60806040526000600655662386f26fc10000600755655af3107a40006008556005600960006101000a81548160ff021916908360ff1602179055506103e8600960016101000a81548163ffffffff021916908363ffffffff1602179055503480156200006a57600080fd5b50604051620017e2380380620017e283398181016040528101906200009091906200022e565b620000b0620000a4620000f860201b60201c565b6200010060201b60201c565b80600160006101000a81548173ffffffffffffffffffffffffffffffffffffffff021916908373ffffffffffffffffffffffffffffffffffffffff1602179055505062000260565b600033905090565b60008060009054906101000a900473ffffffffffffffffffffffffffffffffffffffff169050816000806101000a81548173ffffffffffffffffffffffffffffffffffffffff021916908373ffffffffffffffffffffffffffffffffffffffff1602179055508173ffffffffffffffffffffffffffffffffffffffff168173ffffffffffffffffffffffffffffffffffffffff167f8be0079c531659141344cd1fd0a4f28419497f9722a3daafe3b4186f6b6457e060405160405180910390a35050565b600080fd5b600073ffffffffffffffffffffffffffffffffffffffff82169050919050565b6000620001f682620001c9565b9050919050565b6200020881620001e9565b81146200021457600080fd5b50565b6000815190506200022881620001fd565b92915050565b600060208284031215620002475762000246620001c4565b5b6000620002578482850162000217565b91505092915050565b61157280620002706000396000f3fe608060405234801561001057600080fd5b50600436106100ea5760003560e01c80638da5cb5b1161008c578063d49be9ed11610066578063d49be9ed14610213578063e1ae131b14610243578063e6e4992a14610277578063f2fde38b146102a7576100ea565b80638da5cb5b146101bb578063ad0ed26e146101d9578063d16dbd80146101f5576100ea565b806353ec0e23116100c857806353ec0e2314610149578063715018a61461016557806376533ee81461016f57806387a344c91461019f576100ea565b8063082108bd146100ef578063196860351461010d5780634dc8374c1461012b575b600080fd5b6100f76102c3565b6040516101049190610d57565b60405180910390f35b6101156102c9565b6040516101229190610d57565b60405180910390f35b6101336102cf565b6040516101409190610d8e565b60405180910390f35b610163600480360381019061015e9190610e20565b6102e2565b005b61016d6104eb565b005b61018960048036038101906101849190610ebe565b6104ff565b6040516101969190610d57565b60405180910390f35b6101b960048036038101906101b49190610ebe565b610517565b005b6101c36108b9565b6040516101d09190610efa565b60405180910390f35b6101f360048036038101906101ee9190610f4d565b6108e2565b005b6101fd610a7e565b60405161020a9190610f9c565b60405180910390f35b61022d60048036038101906102289190610fe3565b610a94565b60405161023a9190611032565b60405180910390f35b61025d6004803603810190610258919061104d565b610ac5565b60405161026e95949392919061107a565b60405180910390f35b610291600480360381019061028c9190610ebe565b610b58565b60405161029e9190610d57565b60405180910390f35b6102c160048036038101906102bc9190610ebe565b610b70565b005b60075481565b60085481565b600960009054906101000a900460ff1681565b6000600160009054906101000a900473ffffffffffffffffffffffffffffffffffffffff1673ffffffffffffffffffffffffffffffffffffffff1663b8f8bbdf336040518263ffffffff1660e01b815260040161033f9190610efa565b60a0604051808303816000875af115801561035e573d6000803e3d6000fd5b505050506040513d601f19601f820116820180604052508101906103829190611148565b5050505090506000801b8114156103ce576040517f08c379a00000000000000000000000000000000000000000000000000000000081526004016103c590611220565b60405180910390fd5b823373ffffffffffffffffffffffffffffffffffffffff166004600083815260200190815260200160002060020160009054906101000a900473ffffffffffffffffffffffffffffffffffffffff1673ffffffffffffffffffffffffffffffffffffffff1614610473576040517f08c379a000000000000000000000000000000000000000000000000000000000815260040161046a9061128c565b60405180910390fd5b6000600460008681526020019081526020016000209050838160020160146101000a81548163ffffffff021916908363ffffffff1602179055507fc4d8bd2319b93abf57650cdc7632ff2e29edc263625cb4d382b84e858de7c755856040516104dc9190611032565b60405180910390a15050505050565b6104f3610bf4565b6104fd6000610c72565b565b60056020528060005260406000206000915090505481565b6000600160009054906101000a900473ffffffffffffffffffffffffffffffffffffffff1673ffffffffffffffffffffffffffffffffffffffff1663b8f8bbdf336040518263ffffffff1660e01b81526004016105749190610efa565b60a0604051808303816000875af1158015610593573d6000803e3d6000fd5b505050506040513d601f19601f820116820180604052508101906105b79190611148565b5050505090506000801b811415610603576040517f08c379a00000000000000000000000000000000000000000000000000000000081526004016105fa90611220565b60405180910390fd5b60003360601b8360601b4360001b6040516020016106239392919061131a565b6040516020818303038152906040528051906020012090506040518060a001604052804381526020013373ffffffffffffffffffffffffffffffffffffffff1681526020018473ffffffffffffffffffffffffffffffffffffffff168152602001600063ffffffff168152602001600060ff16815250600460008381526020019081526020016000206000820151816000015560208201518160010160006101000a81548173ffffffffffffffffffffffffffffffffffffffff021916908373ffffffffffffffffffffffffffffffffffffffff16021790555060408201518160020160006101000a81548173ffffffffffffffffffffffffffffffffffffffff021916908373ffffffffffffffffffffffffffffffffffffffff16021790555060608201518160020160146101000a81548163ffffffff021916908363ffffffff16021790555060808201518160020160186101000a81548160ff021916908360ff16021790555090505043600360003373ffffffffffffffffffffffffffffffffffffffff1673ffffffffffffffffffffffffffffffffffffffff1681526020019081526020016000208190555043600360008573ffffffffffffffffffffffffffffffffffffffff1673ffffffffffffffffffffffffffffffffffffffff16815260200190815260200160002081905550600260008473ffffffffffffffffffffffffffffffffffffffff1673ffffffffffffffffffffffffffffffffffffffff1681526020019081526020016000208190806001815401808255809150506001900390600052602060002001600090919091909150557fb51ae0ef4eb4d8abc8d0b92a6fe28ea6b9601908d3bb26d7d1a750f95223acda816040516108ac9190611032565b60405180910390a1505050565b60008060009054906101000a900473ffffffffffffffffffffffffffffffffffffffff16905090565b6108ea610bf4565b60006004600084815260200190815260200160002090508161090d576000610947565b80600201601881819054906101000a900460ff168092919061092e90611386565b91906101000a81548160ff021916908360ff1602179055505b50600754600560008360020160009054906101000a900473ffffffffffffffffffffffffffffffffffffffff1673ffffffffffffffffffffffffffffffffffffffff1673ffffffffffffffffffffffffffffffffffffffff16815260200190815260200160002060008282546109bd91906113b0565b92505081905550600854600560008360010160009054906101000a900473ffffffffffffffffffffffffffffffffffffffff1673ffffffffffffffffffffffffffffffffffffffff1673ffffffffffffffffffffffffffffffffffffffff1681526020019081526020016000206000828254610a3991906113b0565b925050819055507fe426d46d244c26228966bfcf6b5e08909db29b91d78ca2b13dd8453c8bd7b59f8383604051610a71929190611415565b60405180910390a1505050565b600960019054906101000a900463ffffffff1681565b60026020528160005260406000208181548110610ab057600080fd5b90600052602060002001600091509150505481565b60046020528060005260406000206000915090508060000154908060010160009054906101000a900473ffffffffffffffffffffffffffffffffffffffff16908060020160009054906101000a900473ffffffffffffffffffffffffffffffffffffffff16908060020160149054906101000a900463ffffffff16908060020160189054906101000a900460ff16905085565b60036020528060005260406000206000915090505481565b610b78610bf4565b600073ffffffffffffffffffffffffffffffffffffffff168173ffffffffffffffffffffffffffffffffffffffff161415610be8576040517f08c379a0000000000000000000000000000000000000000000000000000000008152600401610bdf906114b0565b60405180910390fd5b610bf181610c72565b50565b610bfc610d36565b73ffffffffffffffffffffffffffffffffffffffff16610c1a6108b9565b73ffffffffffffffffffffffffffffffffffffffff1614610c70576040517f08c379a0000000000000000000000000000000000000000000000000000000008152600401610c679061151c565b60405180910390fd5b565b60008060009054906101000a900473ffffffffffffffffffffffffffffffffffffffff169050816000806101000a81548173ffffffffffffffffffffffffffffffffffffffff021916908373ffffffffffffffffffffffffffffffffffffffff1602179055508173ffffffffffffffffffffffffffffffffffffffff168173ffffffffffffffffffffffffffffffffffffffff167f8be0079c531659141344cd1fd0a4f28419497f9722a3daafe3b4186f6b6457e060405160405180910390a35050565b600033905090565b6000819050919050565b610d5181610d3e565b82525050565b6000602082019050610d6c6000830184610d48565b92915050565b600060ff82169050919050565b610d8881610d72565b82525050565b6000602082019050610da36000830184610d7f565b92915050565b600080fd5b6000819050919050565b610dc181610dae565b8114610dcc57600080fd5b50565b600081359050610dde81610db8565b92915050565b600063ffffffff82169050919050565b610dfd81610de4565b8114610e0857600080fd5b50565b600081359050610e1a81610df4565b92915050565b60008060408385031215610e3757610e36610da9565b5b6000610e4585828601610dcf565b9250506020610e5685828601610e0b565b9150509250929050565b600073ffffffffffffffffffffffffffffffffffffffff82169050919050565b6000610e8b82610e60565b9050919050565b610e9b81610e80565b8114610ea657600080fd5b50565b600081359050610eb881610e92565b92915050565b600060208284031215610ed457610ed3610da9565b5b6000610ee284828501610ea9565b91505092915050565b610ef481610e80565b82525050565b6000602082019050610f0f6000830184610eeb565b92915050565b60008115159050919050565b610f2a81610f15565b8114610f3557600080fd5b50565b600081359050610f4781610f21565b92915050565b60008060408385031215610f6457610f63610da9565b5b6000610f7285828601610dcf565b9250506020610f8385828601610f38565b9150509250929050565b610f9681610de4565b82525050565b6000602082019050610fb16000830184610f8d565b92915050565b610fc081610d3e565b8114610fcb57600080fd5b50565b600081359050610fdd81610fb7565b92915050565b60008060408385031215610ffa57610ff9610da9565b5b600061100885828601610ea9565b925050602061101985828601610fce565b9150509250929050565b61102c81610dae565b82525050565b60006020820190506110476000830184611023565b92915050565b60006020828403121561106357611062610da9565b5b600061107184828501610dcf565b91505092915050565b600060a08201905061108f6000830188610d48565b61109c6020830187610eeb565b6110a96040830186610eeb565b6110b66060830185610f8d565b6110c36080830184610d7f565b9695505050505050565b6000815190506110dc81610db8565b92915050565b600281106110ef57600080fd5b50565b600081519050611101816110e2565b92915050565b61111081610d72565b811461111b57600080fd5b50565b60008151905061112d81611107565b92915050565b60008151905061114281610fb7565b92915050565b600080600080600060a0868803121561116457611163610da9565b5b6000611172888289016110cd565b9550506020611183888289016110f2565b94505060406111948882890161111e565b93505060606111a588828901611133565b92505060806111b688828901611133565b9150509295509295909350565b600082825260208201905092915050565b7f446576696365206f6e6c79000000000000000000000000000000000000000000600082015250565b600061120a600b836111c3565b9150611215826111d4565b602082019050919050565b60006020820190508181036000830152611239816111fd565b9050919050565b7f4e6f74207375626a656374000000000000000000000000000000000000000000600082015250565b6000611276600b836111c3565b915061128182611240565b602082019050919050565b600060208201905081810360008301526112a581611269565b9050919050565b60007fffffffffffffffffffffffffffffffffffffffff00000000000000000000000082169050919050565b6000819050919050565b6112f36112ee826112ac565b6112d8565b82525050565b6000819050919050565b61131461130f82610dae565b6112f9565b82525050565b600061132682866112e2565b60148201915061133682856112e2565b6014820191506113468284611303565b602082019150819050949350505050565b7f4e487b7100000000000000000000000000000000000000000000000000000000600052601160045260246000fd5b600061139182610d72565b915060ff8214156113a5576113a4611357565b5b600182019050919050565b60006113bb82610d3e565b91506113c683610d3e565b9250827fffffffffffffffffffffffffffffffffffffffffffffffffffffffffffffffff038211156113fb576113fa611357565b5b828201905092915050565b61140f81610f15565b82525050565b600060408201905061142a6000830185611023565b6114376020830184611406565b9392505050565b7f4f776e61626c653a206e6577206f776e657220697320746865207a65726f206160008201527f6464726573730000000000000000000000000000000000000000000000000000602082015250565b600061149a6026836111c3565b91506114a58261143e565b604082019050919050565b600060208201905081810360008301526114c98161148d565b9050919050565b7f4f776e61626c653a2063616c6c6572206973206e6f7420746865206f776e6572600082015250565b60006115066020836111c3565b9150611511826114d0565b602082019050919050565b60006020820190508181036000830152611535816114f9565b905091905056fea264697066735822122007b794d9ef5217a05cd0eabe9edbf65c34a92ee76ed7bf2bb2307596f5bbad7864736f6c634300080b0033",
  "linkReferences": {},
  "deployedLinkReferences": {}
}